:100000000C9439260C946A260C946A260C946A2661
:100010000C946A260C946A260C946A260D94AE23DE
:100020000C946A260C946A260C946A260C946A2610
:100030000C946A260C946A260C946A260D9489CA3C
:100040000C946A260C946A260C946A260C946A26F0
:100050000C946A260C946A260C946A260C946A26E0
:100060000C946A260D9458240D9487240C946A26C7
:100070000C946A260C946A260C946A260C946A26C0
:100080000C946A260C946A260C946A260C946A26B0
:100090000D94C2240D94F1240C946A260D946C28BE
:1000A0000C946A260D94B6CA0C946A260C946A269F
:1000B0000C946A260C946A260D94E3CA0C946A2662
:1000C0000C946A260C946A260D94872E0D942C2588
:1000D0000D945B250C946A260C946A260C946A266F
:1000E0000C946A26174A634A6C4A394A524A754A3E
:1000F000044BBC4AB34AA04AC54ADA4AED4A7E4A92
:100100008D4A104A1E4B0D4B2E4B364B104A3E4B20
:10011000104A504BF756D1576F5800572A5723575C
:10012000835715570558315705588A5705586F5842
:100130009057B257C8574D5D5E5D675D725D1C603C
:10014000BD5D1C601B5E1C60215E1C60645D2C5EDE
:100150001C603E5E485EE05F1C601C601C601C60B2
:100160001C60E95FF05FF75F006010606E645B67C2
:10017000BA6487649864CB64FE645B675B679E6562
:100180005B6742655B67ED645B675B67D165EA65EA
:1001900003665B67A964536585655B67AF65DC646F
:1001A0005B676C655B671C662D665B675B670F65ED
:1001B000206531655B673E666E66C06587665B6716
:1001C0005B675B679866A366B466C566D666E766D6
:1001D000F86653754275B3753A760F780078207AD1
:1001E0004C77D77EC978D77E237AD77E3A7A667BDA
:1001F000647C607D477650766A76207A50761877F0
:100200001B7790229023D2224E236E256E24082441
:10021000CE217E23A825982288230E243E24602503
:10022000DC222225B6212825CA25842258252A2207
:100230006424D225BC232022F2257C242A24622295
:100240004E22D625D6257222722272226E226E226C
:100250006E22482340254025A6240C259C221A23E3
:10026000E821F2243E25A221AA23E8222423DE2429
:100270008C2224220E2592219222342272239E2344
:1002800006266023F622E02252255E25F623A821C9
:10029000C623C424A224CA2276254A235624FC213C
:1002A000A0228822662380235623EC22342496251C
:1002B0002C2270225E23B82346241223C4255C23FB
:1002C000B221902168235A24C022BA2468225E22D7
:1002D000FA21242442237224322412265A22AA22EA
:1002E0004A2538242C268A229E22F425BC22B224B8
:1002F000182382240E23C021EE214424BE25BE25CE
:10030000E224BE25BE25E224E2243C226C223C22CB
:100310006C223C226C223C22842484248424842465
:10032000842484248424842484241E223C226C2259
:100330003C226C223C226C223C226C223C221E225B
:100340003C22842484246C223C2284246C223C227F
:100350006C223C221E22BC240023BC240023BC248B
:100360000023BC240023BC240023F222F222F22228
:1003700086238623F222F222F22286238623A225D6
:10038000A225A22594259425A225A225A22594255F
:100390009425C4233623C4233623C4233623C423FD
:1003A0003623C4233825D8223C251A2626250025A5
:1003B00076222024762276227622862496232826E8
:1003C000DE22DE22C821C624AE2130247A23B024C6
:1003D000AE244423022402244422E422E422E42220
:1003E000E422E422E4220224E422E422E422E422BD
:1003F000442244224422442244224422E422E4228D
:10040000022402244422036EDB363D9A9999993DD9
:10041000ABAAAA2A3E000000803F084AD73B3BCE49
:10042000016E84BCBFFDC12F3D6C74319ABD5683F3
:100430003DDA3D00C77F11BED9E4BB4C3E916BAAAB
:10044000AABE000000803F072C7AA5BA6CC590DADE
:100450003B9365FC8BBC53F810FD3C5692834DBD1D
:10046000879D3AB63DCBC9BF5BBE73DA0FC93F0566
:10047000A84CCDB2D44EB93836A9020C50B99186E9
:1004800088083CA6AAAA2ABE000000803F080000F7
:1004900000BE922449123EABAAAA2ABECDCCCC4CB7
:1004A0003E00000080BEABAAAAAA3E00000000BF2A
:1004B000000000803F0000000000084178D3BB43EB
:1004C00087D1133D190E3CC3BD4282AD2B3E68EC73
:1004D0008276BED98FE1A93E4C80EFFFBE01C4FFFA
:1004E0007F3F00000000005265616368656420433F
:1004F0006F6D6D616E6420232569005265616368CC
:10050000656420436F6D6D616E642023256900442E
:10051000434D206261642068656164696E670043D1
:10052000726173683A2044697361726D696E670025
:100530004175746F54756E653A204661696C6564E7
:10054000004175746F54756E653A20537563636529
:100550007373004175746F54756E653A2053746FF0
:1005600070706564004175746F54756E653A205300
:10057000746172746564004D6F746F72205465739A
:10058000743A20536166657479205377697463689F
:10059000004D6F746F7220546573743A20766568ED
:1005A00069636C65206E6F74206C616E64656400B5
:1005B0004D6F746F7220546573743A205243206EED
:1005C0006F742063616C696272617465640061625A
:1005D0006C65640A0064697300656E000A436F6DA0
:1005E0004D6F7425643A2025342E32662C20253434
:1005F0002E32662C2025342E32660A004375727224
:10060000656E74005468726F74746C65004F666632
:100610000A004D6F746F7220436F6D703A20004D69
:1006200061672564206F66663A2025342E34662C77
:100630002025342E34662C2025342E34660A004DB5
:100640006167204465633A2025342E34660A0043EE
:100650006F6D706173730A004661696C6564210097
:1006600043616C6962726174696F6E205375636374
:1006700065737366756C21005448524F54544C4551
:100680000043555252454E54005354415254494E22
:10069000472043414C4942524154494F4E004E6F0E
:1006A00074206C616E64656400746872206E6F748F
:1006B000207A65726F005243206E6F742063616C04
:1006C0006962726174656400636865636B20636F5F
:1006D0006D7061737300636F6D7061737320646913
:1006E0007361626C65640A004672616D653A2051FF
:1006F0005541440041726475436F707465722056B1
:10070000332E322E31202834316631333238642989
:1007100000434F4D5041535320494E4954204552B8
:10072000524F52004553432063616C20696E7075CF
:10073000743A2025752025752025752025752020E3
:100740006F75747075743A20257520257520257590
:100750002025750A004553432043616C3A2070619F
:100760007373696E67207468726F74746C6520743B
:1007700068726F75676820746F20455343732E0A43
:1007800000456E746572696E67204553432043616E
:100790006C3A20726573746172742041504D2E0A58
:1007A000004C6F6720657261736520636F6D706CBC
:1007B0006574650A0045726173696E67206C6F67C6
:1007C000730A006C6F61645F616C6C20746F6F6B97
:1007D00020256C7575730A00646F6E652E0046697E
:1007E000726D77617265206368616E67653A206536
:1007F000726173696E6720454550524F4D2E2E2E03
:100800000A0042616420766172207461626C650046
:1008100042616420766172207461626C650A002D09
:10082000004657205665723A2025640A00496E69D1
:100830007469616C6973696E672041504D2E2E2E6C
:10084000000A526561647920746F20464C5920007B
:1008500045524153494E47204C4F4753004E6F205D
:1008600064617461666C61736820696E736572742B
:100870006564000A0A496E69742041726475436FA9
:10088000707465722056332E322E31202834316632
:100890003133323864290A0A467265652052414D67
:1008A0003A2025750A004C6F73742047505321007D
:1008B0004C6F7720426174746572792100547269BB
:1008C0006D207361766564006261726F6D65746539
:1008D000722063616C6962726174696F6E20636F0C
:1008E0006D706C6574650043616C696272617469F6
:1008F0006E67206261726F6D657465720047524F5A
:10090000554E442053544152540041726D3A204791
:1009100079726F2063616C206661696C6564004167
:10092000726D3A20536166657479205377697463F8
:10093000680041726D3A204C65616E696E670041D6
:10094000726D3A205468722062656C6F772046534E
:100950000041726D3A20416C742064697370617259
:100960006974790041726D3A204D6F6465206E6F35
:10097000742061726D61626C650050726541726DC8
:100980003A2048696768204750532048444F500038
:1009900050726541726D3A204261642056656C6FF9
:1009A000636974790050726541726D3A204E6565D5
:1009B00064203344204669780050726541726D3A74
:1009C0002047505320476C6974636800507265413A
:1009D000726D3A204143524F5F42414C5F524F4C3F
:1009E0004C2F50495443480050726541726D3A2073
:1009F000436865636B20414E474C455F4D4158004D
:100A000050726541726D3A20436865636B204653AE
:100A10005F5448525F56414C5545005072654172D3
:100A20006D3A2043683726436838204F707420633E
:100A3000616E6E6F742062652073616D6500507227
:100A40006541726D3A20436865636B20426F617245
:100A50006420566F6C746167650050726541726DF9
:100A60003A204779726F2063616C206661696C651A
:100A7000640050726541726D3A204779726F73203D
:100A80006E6F74206865616C74687900507265419E
:100A9000726D3A20416363656C73206E6F742068D9
:100AA00065616C7468790050726541726D3A2049D5
:100AB0004E53206E6F742063616C6962726174655D
:100AC000640050726541726D3A20636865636B2003
:100AD00066656E63650050726541726D3A204368C9
:100AE00065636B206D6167206669656C6400507298
:100AF0006541726D3A20436F6D70617373206F664C
:100B0000667365747320746F6F206869676800503E
:100B1000726541726D3A20436F6D70617373206E20
:100B20006F742063616C69627261746564005072F5
:100B30006541726D3A20436F6D70617373206E6F03
:100B400074206865616C7468790050726541726DDB
:100B50003A20416C74206469737061726974790021
:100B600050726541726D3A204261726F206E6F74EF
:100B7000206865616C7468790050726541726D3AE5
:100B8000205243206E6F742063616C6962726174DD
:100B90006564004672616D653A20515541440041DB
:100BA000726475436F707465722056332E322E3125
:100BB000202834316631333238642900504552469A
:100BC0003A2025752F257520256C750A008D0001AA
:100BD00000424154545F4D4F4E49544F5200000063
:100BE0000000A8000100424154545F564F4C545F2E
:100BF00050494E00000000A9000100424154545FDA
:100C0000435552525F50494E000000008E000400D0
:100C1000424154545F564F4C545F4D554C54000064
:100C2000008F000400424154545F414D505F5045D5
:100C300052564F4C540091000300424154545F43BC
:100C40004150414349545900000000140002004C37
:100C50004F475F4249544D41534B00000000000094
:100C60008059464D54000042426E4E5A000000002A
:100C700000000000000000547970652C4C656E6720
:100C800074682C4E616D652C466F726D61742C43D7
:100C90006F6C756D6E7300000000000000000000B6
:100CA0000000000000000000000000000000000044
:100CB0000000000000000081175041524D004E66B8
:100CC00000000000000000000000000000004E6175
:100CD0006D652C56616C7565000000000000000019
:100CE0000000000000000000000000000000000004
:100CF00000000000000000000000000000000000F4
:100D00000000000000000000000000000000822D34
:100D1000475053000042494842634C4C6565456565
:100D200066490000005374617475732C54696D65D5
:100D30004D532C5765656B2C4E536174732C48448E
:100D40006F702C4C61742C4C6E672C52656C416C2E
:100D5000742C416C742C5370642C474372732C5662
:100D60005A2C540000831F494D55000049666666A1
:100D700066666600000000000000000054696D65B2
:100D80004D532C477972582C477972592C477972F8
:100D90005A2C416363582C416363592C4163635A55
:100DA0000000000000000000000000000000000043
:100DB00000000000000000000000000084434D53CC
:100DC0004700005A00000000000000000000000082
:100DD0000000004D6573736167650000000000004E
:100DE0000000000000000000000000000000000003
:100DF00000000000000000000000000000000000F3
:100E000000000000000000000000000000000000E2
:100E100000000085235243494E00496868686868AD
:100E20006868686868686868680054696D654D53EB
:100E30002C43312C43322C43332C43342C43352C5C
:100E400043362C43372C43382C43392C4331302C38
:100E50004331312C4331322C4331332C4331340074
:100E600000000000000000000000861752434F55AC
:100E700000496868686868686868000000000000E9
:100E80000054696D654D532C4368616E312C436885
:100E9000616E322C4368616E332C4368616E342C72
:100EA0004368616E352C4368616E362C4368616E11
:100EB000372C4368616E380000000000000000001D
:100EC0000088154241524F00496666636600000083
:100ED000000000000000000054696D654D532C4176
:100EE0006C742C50726573732C54656D702C435266
:100EF000740000000000000000000000000000007E
:100F000000000000000000000000000000000000E1
:100F10000000000000000000890D504F57520049AA
:100F2000434348000000000000000000000000549F
:100F3000696D654D532C5663632C56536572766FFD
:100F40002C466C6167730000000000000000000088
:100F50000000000000000000000000000000000091
:100F600000000000000000000000000000000091F0
:100F700029434D44000049484848666666666666EF
:100F800066000000000054696D654D532C43546F9A
:100F9000742C434E756D2C4349642C50726D312C6A
:100FA00050726D322C50726D332C50726D342C4C4B
:100FB00061742C4C6E672C416C74000000000000C2
:100FC00000000000000092105241440000494242DB
:100FD0004242424848000000000000000054696D91
:100FE000654D532C525353492C52656D52535349FE
:100FF0002C54784275662C4E6F6973652C52656D62
:101000004E6F6973652C52784572726F72732C46FD
:1010100069786564000000000000000000941F4330
:10102000414D000049484C4C656563634300000036
:101030000000000047505354696D652C47505357CA
:1010400065656B2C4C61742C4C6E672C416C742C58
:1010500052656C416C742C526F6C6C2C50697463CB
:10106000682C5961770000000000000000000000BB
:101070000000000019194154554E00424266666650
:101080006666000000000000000000417869732CD3
:1010900054756E65537465702C526174654D696E3C
:1010A0002C526174654D61782C52504761696E2CE9
:1010B00052444761696E2C53504761696E000000CD
:1010C00000000000000000000000001A0941544424
:1010D0004500636600000000000000000000000002
:1010E0000000416E676C652C526174650000000061
:1010F00000000000000000000000000000000000F0
:1011000000000000000000000000000000000000DF
:1011100000000000000000000000000000000000CF
:1011200000000917435552520049684968686866CB
:1011300000000000000000000054696D654D532C54
:101140005468724F75742C546872496E742C566FC3
:101150006C742C437572722C5663632C43757272D7
:10116000546F740000000000000000000000000048
:101170000000000000000000000C144F46000000BA
:1011800068684263636565000000000000000000BD
:1011900044782C44792C535175616C2C582C592C63
:1011A000526F6C6C2C506974636800000000000082
:1011B000000000000000000000000000000000002F
:1011C000000000000000000000000000000000001F
:1011D000052F4E54554E004966666666666666661D
:1011E0006666000000000054696D654D532C445044
:1011F0006F73582C44506F73592C506F73582C5088
:101200006F73592C4456656C582C4456656C592C98
:1012100056656C582C56656C592C44416363582CA8
:101220004441636359000004214354554E0049680A
:10123000686866666563636868000000000054695A
:101240006D654D532C546872496E2C416E67427324
:10125000742C5468724F75742C44416C742C416C1E
:10126000742C426172416C742C4453416C742C5345
:10127000416C742C444352742C43527400000F1977
:101280004D41470000496868686868686868680098
:10129000000000000054696D654D532C4D61675886
:1012A0002C4D6167592C4D61675A2C4F6673582C31
:1012B0004F6673592C4F66735A2C4D4F6673582CDA
:1012C0004D4F6673592C4D4F66735A000000000055
:1012D00000000000000611504D0000004848496819
:1012E0004248420000000000000000004E4C6F6EBB
:1012F0002C4E4C6F6F702C4D6178542C504D542CEB
:101300004932434572722C494E534572722C494EF4
:10131000415645727200000000000000000000000D
:101320000000000000000000000000000117415410
:101330005400004963636363434343430000000078
:1013400000000054696D654D532C446573526F6CF9
:101350006C2C526F6C6C2C44657350697463682CF0
:1013600050697463682C4465735961772C596177AF
:101370002C45727252502C457272596177000000F0
:1013800000000003064D4F4445004D68000000007A
:10139000000000000000000000004D6F64652C5448
:1013A000687243727300000000000000000000003B
:1013B000000000000000000000000000000000002D
:1013C000000000000000000000000000000000001D
:1013D000000000000000000000000A0353545254B3
:1013E00000000000000000000000000000000000FD
:1013F00000000000000000000000000000000000ED
:1014000000000000000000000000000000000000DC
:1014100000000000000000000000000000000000CC
:1014200000000000000000000000000000000000BC
:10143000000D0445560000004200000000000000BE
:1014400000000000000000004964000000000000EF
:10145000000000000000000000000000000000008C
:10146000000000000000000000000000000000007C
:10147000000000000000000000000000000000006C
:101480000000000000000000140644313600004255
:10149000680000000000000000000000000000499B
:1014A000642C56616C7565000000000000000000AF
:1014B000000000000000000000000000000000002C
:1014C000000000000000000000000000000000001C
:1014D00000000000000000000000000000000015F7
:1014E000064455313600424800000000000000006C
:1014F00000000000000049642C56616C7565000016
:1015000000000000000000000000000000000000DB
:1015100000000000000000000000000000000000CB
:1015200000000000000000000000000000000000BB
:101530000000000000001608443332000042690039
:101540000000000000000000000000000049642CC2
:1015500056616C756500000000000000000000008E
:10156000000000000000000000000000000000007B
:10157000000000000000000000000000000000006B
:1015800000000000000000000000000000170844F8
:101590005533320042490000000000000000000006
:1015A0000000000049642C56616C75650000000065
:1015B000000000000000000000000000000000002B
:1015C000000000000000000000000000000000001B
:1015D000000000000000000000000000000000000B
:1015E00000000000180844464C5400426600000009
:1015F000000000000000000000000049642C56615B
:101600006C75650000000000000000000000000094
:1016100000000000000000000000000000000000CA
:1016200000000000000000000000000000000000BA
:1016300000000000000000000000001305455252A9
:101640000000424200000000000000000000000016
:1016500000005375627379732C45436F6465000015
:10166000000000000000000000000000000000007A
:10167000000000000000000000000000000000006A
:10168000000000000000000000000000000000005A
:101690000000255D0100640021430200C201FB61DE
:1016A0000200840310610A00D00220600A003200A8
:1016B000678B0A000A004B2C0A008C001F3A0A00B4
:1016C000E803B789040020034E3301003200EE63C3
:1016D00021005A00112B0200A4016D260200FA001D
:1016E0000D2B0200640060486400A401035A0A0044
:1016F00014007A450A0014007C2A02002602792A86
:1017000064009600762A0200D002C64C0200B6039E
:10171000562A0200C20116390A002C0100390200C3
:10172000DC007167E803C8006F310A003200025321
:10173000595349445F53575F4D52455600000000CE
:10174000003E12000000000153595349445F5357B3
:101750005F54595045000000000140120000204134
:101760000253595349445F544849534D4156000070
:1017700000007041120000803F0253595349445FFA
:101780004D59474353000000000000714312000010
:101790007F430253455249414C305F42415544001A
:1017A000000000003145120000E642025345524954
:1017B000414C315F42415544000000000032471265
:1017C000000064420154454C454D5F44454C41592D
:1017D0000000000000007349120000000002525493
:1017E0004C5F414C5400000000000000000000A0CD
:1017F0004A120080BB4404524E47464E445F474164
:10180000494E0000000000001E4C12CDCC4C3F01A0
:1018100046535F424154545F454E41424C4500009F
:1018200000C15012000000000446535F424154546E
:101830005F564F4C54414745000097511200002815
:10184000410446535F424154545F4D4148000000FB
:10185000000000255512000000000146535F47506C
:10186000535F454E41424C4500000000C3591200F1
:1018700000803F0146535F4743535F454E41424C12
:101880004500000000C65A120000803F0247505336
:101890005F48444F505F474F4F4400000000235BB8
:1018A0001200006643014D41475F454E41424C45A1
:1018B00000000000000000925D120000803F014621
:1018C0004C4F575F454E41424C4500000000000020
:1018D000965E12000000000153555045525F534977
:1018E0004D504C4500000000009B5F1200000000BE
:1018F0000252544C5F414C545F46494E414C0000EB
:101900000000A360120000000001525353495F50D1
:10191000494E0000000000000000001862120000A4
:1019200080BF04525353495F52414E474500000067
:10193000000000002763120000A0400157505F59CB
:1019400041575F4245484156494F5200001A6712BD
:10195000000000400352544C5F4C4F49545F5449BF
:101960004D4500000000A26D1200409C45024C4114
:101970004E445F535045454400000000000000D92C
:101980007112000048420250494C4F545F56454C7A
:101990005A5F4D41580000001C731200007A430248
:1019A00050494C4F545F414343454C5F5A0000003F
:1019B0000030751200007A43025448525F4D494E80
:1019C00000000000000000000000B47712000002D8
:1019D00043025448525F4D4158000000000000008F
:1019E000000000B5791200007A440146535F544864
:1019F000525F454E41424C4500000000B67B12004C
:101A00000000000246535F5448525F56414C554512
:101A10000000000000B87C1200C073440254524918
:101A20004D5F5448524F54544C4500000000B97E5D
:101A3000120000E143025448525F4D494400000047
:101A400000000000000000C280120000FA430254AF
:101A500048525F445A0000000000000000000000EF
:101A60003982120000C84201464C544D4F44453162
:101A7000000000000000000000C884120000000008
:101A800001464C544D4F4445320000000000000018
:101A90000000C985120000000001464C544D4F441F
:101AA0004533000000000000000000CA861200005C
:101AB000000001464C544D4F4445340000000000E6
:101AC00000000000CB87120000000001464C544D7E
:101AD0004F444535000000000000000000CC881293
:101AE0000000000001464C544D4F444536000000B4
:101AF000000000000000CD891200000000015349E1
:101B00004D504C450000000000000000000000CED9
:101B10008A1200000000034C4F475F4249544D4178
:101B2000534B0000000000003C8B1200805F44011A
:101B300045534300000000000000000000000000CA
:101B400000BA8F12000000000154554E45000000FD
:101B500000000000000000000000BB901200000028
:101B6000000254554E455F4C4F57000000000000E6
:101B7000000000BD9312000000000254554E455F66
:101B8000484947480000000000000000BC911200D6
:101B9000007A44014652414D45000000000000001B
:101BA00000000000009595120000803F0143483777
:101BB0005F4F5054000000000000000000009896A5
:101BC0001200000000014348385F4F5054000000ED
:101BD000000000000000001F9712000000000141FB
:101BE000524D494E475F434845434B0000000000BB
:101BF0002098120000803F02414E474C455F4D4106
:101C000058000000000000000022EB1400A08C45EA
:101C10000152435F4645454C5F52500000000000B2
:101C200000002868120000C8420250484C445F423D
:101C300052414B455F5241544500002E691200004D
:101C400000410250484C445F4252414B455F414E77
:101C5000474C45002F6B1200803B45014C414E44E0
:101C60005F5245504F534954494F4E00003499122A
:101C70000000803F04454B465F434845434B5F545B
:101C8000485245534800369A12CDCC4C3F04444349
:101C90004D5F434845434B5F544852455348003BD2
:101CA0009E12CDCC4C3F085243315F000000000033
:101CB0000000000000000000AAA212D540000008A9
:101CC0005243325F000000000000000000000000EE
:101CD00000ABBF12D5400000085243335F00000044
:101CE00000000000000000000000ACDC12D5400045
:101CF00000085243345F00000000000000000000B4
:101D0000000000ADF912D5400000085243355F00D5
:101D1000000000000000000000000000AE16138A62
:101D2000400000085243365F000000000000000041
:101D30000000000000AF34138A400000085243370F
:101D40005F00000000000000000000000000B05232
:101D5000138A400000085243385F00000000000072
:101D600000000000000000B170138A40000008521B
:101D70004331305F00000000000000000000000060
:101D8000B28E138A40000008524331315F000000D8
:101D9000000000000000000000B3AC138A40000007
:101DA0000252435F535045454400000000000000CC
:101DB0000000C0CA130000F543044143524F5F5274
:101DC000505F500000000000000000DDCC13000058
:101DD0009040044143524F5F5941575F500000000B
:101DE00000000000F4D01300009040044143524F23
:101DF0005F42414C5F524F4C4C00000000F2D41344
:101E00000000803F044143524F5F42414C5F5049C4
:101E1000544348000000F3D8130000803F014143C1
:101E2000524F5F545241494E455200000000001B82
:101E3000DC1300000040044143524F5F4558504FAF
:101E4000000000000000000038DD139A99993E0858
:101E5000524154455F524C4C5F00000000000000AE
:101E600000DFE113DA24000008524154455F504975
:101E7000545F0000000000000000E0FF13DA2400BF
:101E80000008524154455F5941575F00000000006F
:101E9000000000E11D14DA240000084C4F495445AD
:101EA000525F4C41545F000000000000E73B14DA31
:101EB000240000084C4F495445525F4C4F4E5F0080
:101EC0000000000000E85914DA24000008544852C9
:101ED0005F524154455F0000000000000000EC77B5
:101EE00014A8240000085448525F414343454C5F06
:101EF00000000000000000F17B14DA240000084F0D
:101F0000465F524C4C5F00000000000000000000E3
:101F1000ED9914DA240000084F465F5049545F00E1
:101F2000000000000000000000EEB714DA240000FA
:101F3000085354425F524C4C5F0000000000000008
:101F40000000E2D914A8240000085354425F50490D
:101F5000545F000000000000000000E3DD14A8242E
:101F60000000085354425F5941575F0000000000D1
:101F700000000000E4E114A8240000085448525F67
:101F8000414C545F000000000000000000EBE5142D
:101F9000A824000008484C445F4C41545F000000F6
:101FA000000000000000E5D514A82400000843410B
:101FB0004D5F00000000000000000000000000A5D0
:101FC000B806B22B00000852454C41595F00000092
:101FD00000000000000000000DE206363E00000890
:101FE000434F4D504153535F00000000000000007C
:101FF0000093EF0F682C000008494E535F0000006B
:102000000000000000000000000003890F523900AA
:102010000008494E41565F0000000000000000002B
:10202000000000646309A33700000857504E415672
:102030005F0000000000000000000000652807A20B
:1020400025000008434952434C455F000000000052
:10205000000000000068F1065725000008415443C5
:102060005F0000000000000000000000000066E4C7
:10207000081823000008504F53434F4E5F000000E4
:1020800000000000000000670108C723000008539B
:1020900052305F000000000000000000000000005F
:1020A0006ED30B1E220000085352315F0000000067
:1020B0000000000000000000006FAA0C1E220000BB
:1020C00008414852535F000000000000000000007B
:1020D00000009FC30D83260000084D4E545F000092
:1020E0000000000000000000000000A65006973B22
:1020F000000008424154545F00000000000000004E
:102100000000000024950A9F2A0000084252445F04
:10211000000000000000000000000000000FC80BDD
:10212000992B000008474E445F00000000000000AB
:102130000000000000000BEF10732800000847505B
:10214000535F0000000000000000000000000010CD
:102150009411BC3500000853434845445F0000001B
:1021600000000000000000000C2912C93E00000819
:1021700046454E43455F000000000000000000009F
:1021800000452006F923000008475053474C4954A6
:1021900043485F000000000000004674110736004D
:1021A00000084241524F474C5443485F0000000032
:1021B00000000047D710D7280000084D4F545F009B
:1021C0000000000000000000000000005A140B1284
:1021D0003B00000852434D41505F000000000000EA
:1021E0000000000000C7C90BB93D0000084D49536D
:1021F0005F000000000000000000000000002A81D5
:102200000D9C3A00000000000000000000000000EB
:1022100000000000000000000000000000000200BC
:102220005241575F53454E5300000000000000002C
:102230000066000000000002014558545F535441FD
:1022400054000000000000000000680000000000D2
:10225000020252435F4348414E000000000000006C
:102260000000006A000000000002035241575F4373
:1022700054524C0000000000000000006C00000000
:1022800000000204504F534954494F4E00000000D3
:1022900000000000006E00000000000205455854D8
:1022A00052413100000000000000000000007000FA
:1022B0000000000002064558545241320000000060
:1022C000000000000000007200000000000207454E
:1022D000585452413300000000000000000000008C
:1022E0007400000000000208504152414D530000AC
:1022F0000000000000000000007600000000000068
:10230000FF000000000000000000000000000000CE
:1023100000000000000000000400524154455F52DC
:10232000505F4D4158000000000000260000A08CC6
:10233000460401524154455F595F4D415800000029
:10234000000000002A0000A00C460402534C455730
:102350005F5941570000000000000000002E0000FF
:10236000007A440403414343454C5F52505F4D4162
:102370005800000000003200000000000404414347
:1023800043454C5F595F4D41580000000000003646
:1023900000000000000105524154455F46465F457C
:1023A0004E414200000000003A000000000000FF23
:1023B000000000000000000000000000000000001D
:1023C0000000000000000004005448525F484F56CF
:1023D0004552000000000000000017000000E1432B
:1023E00000FF0000000000000000000000000000EE
:1023F0000000000000000000000100454E41424C7A
:102400004500000000000000000000000200000085
:102410000000010154595045000000000000000078
:10242000000000000003000000404001024143544E
:10243000494F4E00000000000000000000000400B2
:102440000000803F0403414C545F4D4158000000A0
:102450000000000000000005000000C84204045213
:1024600041444955530000000000000000000000F6
:1024700009000000964304054D415247494E0000B3
:102480000000000000000000000D000000004000FF
:10249000FF0000000000000000000000000000003D
:1024A00000000000000000000400500000000000D8
:1024B000000000000000000000000000000000001C
:1024C0000000FF000000000000000000000000000D
:1024D00000000000000000000000040050000000A8
:1024E00000000000000000000000000000000000EC
:1024F000000000040149000000000000000000008E
:10250000000000000000040000000000040244007D
:1025100000000000000000000000000000000008B3
:1025200000000000000203494D4158000000000077
:1025300000000000000000000C000000000000FF90
:10254000000000000000000000000000000000008B
:1025500000000000000000040052414449555300AF
:1025600000000000000000000000070000007A44A6
:10257000040152415445000000000000000000002A
:102580000000000B000000A04100FF000000000060
:10259000000000000000000000000000000000003B
:1025A00000000400535045454400000000000000B6
:1025B00000000000000F000000FA430401524144F3
:1025C00049555300000000000000000000001B00FF
:1025D00000004843040253504545445F55500000F5
:1025E00000000000000000130000007A43040353C1
:1025F000504545445F444E000000000000000000CC
:1026000017000000164304044C4F49545F535045D3
:1026100045440000000000000007000000FA4304E9
:1026200005414343454C000000000000000000004D
:1026300000001F000000C8420406414343454C5FB0
:102640005A0000000000000000000023000000C845
:102650004204074C4F49545F4A45524B000000006A
:10266000000000000B0000007A4400FF00000000A2
:10267000000000000000000000000000000000005A
:1026800000000004024750535F4741494E000000DC
:1026900000000000000022000000803F01034750BE
:1026A000535F555345000000000000000000002C5F
:1026B000000000803F04045941575F5000000000B3
:1026C00000000000000000001A00CDCC4C3E0405C4
:1026D00052505F50000000000000000000000000A9
:1026E000001E00CDCC4C3E010657494E445F4D4183
:1026F000580000000000000000002D000000000055
:1027000005085452494D0000000000000000000080
:1027100000000041000000000001094F5249454EF1
:10272000544154494F4E0000000000002E000000AC
:102730000000040A434F4D505F42455441000000E1
:1027400000000000002800CDCCCC3D010B475053C9
:102750005F4D494E534154530000000000002F00CC
:102760000000C04000FF000000000000000000006A
:102770000000000000000000000000000050414E7A
:1027800049433A2041505F4261726F3A3A72656143
:102790006420756E7375636365737366756C20660C
:1027A0006F72206D6F7265207468616E20353030F5
:1027B0006D7320696E2041505F4261726F3A3A63D7
:1027C000616C696272617465205B335D0D0A005053
:1027D000414E49433A2041505F4261726F3A3A722A
:1027E00065616420756E7375636365737366756C7C
:1027F00020666F72206D6F7265207468616E20357F
:1028000030306D7320696E2041505F4261726F3AC3
:102810003A63616C696272617465205B325D0D0AB6
:102820000050414E49433A2041505F4261726F3A35
:102830003A7265616420756E737563636573736660
:10284000756C20666F72206D6F7265207468616EA2
:10285000203530306D7320696E2041505F426172C7
:102860006F3A3A63616C696272617465205B315DD5
:102870000D0A0004024142535F5052455353000079
:102880000000000000000C0000000000040354459C
:102890004D50000000000000000000000000000893
:1028A00000000000000104414C545F4F4646534570
:1028B000540000000000000010000000000000FFB5
:1028C0000000000000000000000000000000000008
:1028D000000000000000000100454E41424C450050
:1028E0000000000000000000000003000000803F26
:1028F000040144495354000000000000000000009F
:1029000000000004000000FA430402414343454C28
:10291000000000000000000000000000080000802F
:10292000BB4400FF000000000000000000000000A9
:10293000000000000000000000000050414E49432C
:102940003A2041505F4261726F5F4D5335363131ED
:1029500020746F6F6B206D6F7265207468616E20DC
:10296000313030306D7320746F20696E6974696125
:102970006C697A650050414E49433A2041505F42AC
:1029800061726F5F4D53353631313A206661696C43
:10299000656420746F2074616B6520736572696172
:1029A0006C2073656D6170686F726520666F722050
:1029B000696E69740050414E49433A2041505F426C
:1029C00061726F5F4D53353631313A204E554C4C64
:1029D0002073657269616C2064726976657200505B
:1029E000414E49433A206661696C656420746F20EA
:1029F00074616B65205F7370695F73656D20313042
:102A0000302074696D657320696E206120726F7764
:102A10002C20696E2041505F4261726F5F4D5335CB
:102A20003631313A3A5F7570646174650050414ED9
:102A300049433A2041505F4261726F5F4D533536D2
:102A4000313120646964206E6F742067657420766C
:102A5000616C6964205350492073656D61706872C0
:102A60006F65210050414E49433A2041505F426119
:102A7000726F5F4D533536313120646964206E6F5B
:102A800074206765742076616C6964205350492016
:102A900064657669636520647269766572210001F8
:102AA000004D4F4E49544F520000000000000000FE
:102AB00000000000000000000101564F4C545F5020
:102AC000494E00000000000000000001000000501E
:102AD000410102435552525F50494E000000000030
:102AE000000000000200000040410403564F4C5417
:102AF0005F4D554C54000000000000000003009A98
:102B00009921410404414D505F504552564F4C5459
:102B10000000000000000700000088410405414D4E
:102B2000505F4F4646534554000000000000000B24
:102B3000000000000003064341504143495459003E
:102B400000000000000000000F0000404E4501079B
:102B5000564F4C54325F50494E00000000000000B8
:102B6000001300000080BF0408564F4C54325F4DE4
:102B7000554C540000000000000014000000803F8D
:102B800000FF000000000000000000000000000046
:102B900000000000000000000000FF000000000036
:102BA0000000000000000000000000000000000025
:102BB0000000010054524947475F545950450000F6
:102BC0000000000000000000000000010144555218
:102BD0004154494F4E000000000000000000010079
:102BE000000020410202534552564F5F4F4E0000F5
:102BF0000000000000000002000080A24402035315
:102C00004552564F5F4F464600000000000000004E
:102C1000040000808944040454524947475F4449F2
:102C200053540000000000000009000000000000F4
:102C3000FF00000000000000000000000000000095
:102C400000000000000000004661696C65642074AB
:102C50006F2067657420484D4335383433207365E1
:102C60006D6170686F72650005014F46530000008A
:102C7000000000000000000000000017000000003D
:102C80000004024445430000000000000000000072
:102C90000000000023000000000001034C454152E9
:102CA0004E000000000000000000000000080000CE
:102CB00000803F0104555345000000000000000063
:102CC00000000000000027000000803F0105415582
:102CD000544F44454300000000000000000000285D
:102CE000000000803F01064D4F5443540000000097
:102CF0000000000000000000A40000000000050724
:102D00004D4F5400000000000000000000000000D3
:102D100000A5000000000001084F5249454E540034
:102D2000000000000000000000001600000000008D
:102D3000010945585445524E414C00000000000026
:102D400000000029000000000000FF00000000005B
:102D50000000000000000000000000000000000073
:102D6000000080114011407132733433321312115C
:102D70003211129334131453523100210304060804
:102D80000B2D0A090705040241C011C0511253540A
:102D9000731211125152731473323100210204055F
:102DA000060708090806070624030201020001209D
:102DB000012011C00111003132137413143312F1C8
:102DC00012D3125100010223250607464423422153
:102DD0000001E0A0313213B433111211001120119F
:102DE00000523312133211200122248504230402DD
:102DF0000342410001E0A0511214131513153413BE
:102E000032514001201152133231000122230405B6
:102E100004050423010382612001E01180113213B3
:102E20005415143332314021020100317231410214
:102E300023442302012201220102614001A01180EA
:102E400051121413341514331231400102010302DC
:102E5000012052111220212243042241022102A109
:102E60000001E0201140515374133211402102033C
:102E7000020302010011121132001141222322210A
:102E8000004102A1800160116011001132337413FE
:102E9000121140016203020321311211121140018B
:102EA000020102030201000100E121E0A011201251
:102EB0001173343331200162036240121112110088
:102EC000110100010201220001200100E1C0010006
:102ED0001180110012111312141334522001E20256
:102EE00021203112110011000100210201000140D6
:102EF000210002410001E06011401112111312146F
:102F00001314133211002122034201022100010097
:102F100011001211001120010041600100C10001E7
:102F20004011200160114051121312131433123159
:102F30000001420322010221000140110031001171
:102F4000000100010001A0E10001A0018011203179
:102F5000529312110021C221002140310011201191
:102F600000010001E0E16001E01100117273123113
:102F70000021420301020102202140110011201111
:102F800060014011600100010221020001200140A6
:102F900001A051321312533211200102018221008B
:102FA00021000100110031E0001100116021000139
:102FB00002010201010021200100016011001152F3
:102FC000131214135211004182010200010021402A
:102FD0001100110011A01100310011208122010106
:102FE000000201002100016011005213121314139A
:102FF00032310100020122014201002100010001E1
:103000001120110011201140710011400102210214
:103010000102010021022100010001001100121132
:103020001233123413321120010201420122010035
:1030300041000160112011001100110051123120D6
:1030400061020122020002010281201100121173AB
:10305000341332110041020182010061000180112C
:1030600000110091323140214201020200626140B0
:103070001152141354333100418201220001020025
:1030800041000160911211525120012201030102FD
:1030900002008261005133541514333100210201C2
:1030A0002203424102A180319213323100412203B6
:1030B0000201030022032201020140111233953361
:1030C0003101002201034203222122010261000199
:1030D0001100115213125312310041220322030036
:1030E00023020302010221203213141615171615AC
:1030F000331120016203020302032201A2414011A5
:1031000012531413141332110100020102030203BB
:10311000020200022302032221203214163718175C
:10312000151312110021220302430243010302037B
:10313000822120111213141534151432110001626A
:103140002302030043020342012012131518193A07
:103150001715131100210203026304E302030203A3
:1031600002010240121314151715163412202122E1
:1031700043020300A3220100111215181C1E1D1981
:1031800016131100020103020304230403240304A1
:1031900043042304030203422011121415171836A6
:1031A00015133121020302230203241E19151210E4
:1031B0000E0C0B0A0909090808080706060504048D
:1031C00004030404040000000000000000000027C5
:1031D000262123252325242722292A2A1C27282B98
:1031E00033322725222C3331303700000000000015
:1031F0000000000000000001FFFFE00000000000F0
:103200000001FFFFF000000000000001FFFFF800D8
:10321000000000000001FFFFFE00000000000003AE
:10322000FFFFFF00000000000003FFFFFFF00000B1
:103230000000000FFFFFFFFE00000003FFFFFC0087
:103240000007FC00007FFFFFFC0000000000000002
:103250001FFFFE000000000096918C87827D78732E
:103260006E69645F5A55504B46413C37322D2823D6
:103270001E19140F0A050004090E13181D22272C0D
:1032800031363B40454A4F54595E63686D72777CD6
:1032900081868B90959A9FA4A9AEB3AFAAA5A09B57
:1032A000968F89837E78736E69645F5A55504B4759
:1032B000423E3935302C27231F1B16120E090501FB
:1032C00003070B1014191D22262B2F34393D4247BA
:1032D0004C51565B60656B70757B80868C92979DB8
:1032E000A3A9AFB2ACA6A09A948F827C76706B65CE
:1032F000605C57524E4A46413D3936322E2A2622CC
:103300001F1B1713100C08040102060A0E12161ACE
:103310001E22262B2F33383D41464B4F54595E64B5
:10332000696F747A80878D949BA2AAB1AEA69F978D
:103330009089826F68635E5955514D4946423F3CC2
:103340003835322E2B2824211E1A1714100D0A0688
:1033500003000306090D1014181C2024282C3034F7
:10336000393D41464A4F54585D62676D7379808795
:103370008F98A2ACB0A59A90867D766F55514D4A34
:103380004744413F3C3A383533312E2B2926232000
:103390001D1A1713100D0A070401010306090D1069
:1033A00013171A1E22262A2E32363A3E42464A4E1B
:1033B00053575B5F64696E757C85909FB2A08D7D6D
:1033C0007067605A553E3C3A393736343332302FC5
:1033D0002E2C2A292724221F1C191613100D0A0728
:1033E0000402000305080A0D1013161A1D212529D1
:1033F0002D3135383C4043464A4D505356595B5E5B
:103400006165696F826D544D4A474442403E2E2E9D
:103410002D2C2C2B2A2A2929282726252423211F35
:103420001C1A1714100D0A07040101030507090CE3
:103430000E1013161A1D2124282C3033373A3D4024
:10344000424447484A4A4B4A48443D3019021621F3
:10345000282B2D2E2F2E2E06090C0F121517191B97
:103460001C1B1811040E2231383C3C3C3A383532D2
:103470002F2B2824201C1915110D09050102060AFD
:103480000E1115181C1F222527292A2B2B2926212E
:103490001911080004080A0A0A08070402000306B2
:1034A00016181A1C1E20211F1712516063625F5DDF
:1034B0005956524E4A46423E3935312C2824201B5B
:1034C00017130E0A060102060A0F13171B1F2326E5
:1034D0002A2D313437393C3D3F3F3E3D39352F2889
:1034E000211C17151313131416A8ADB2B0ABA6A167
:1034F0009C97928D88837E79746F6A65605B565164
:103500004C47423D38332E29241F1A15100B060153
:1035100003080D12171C21262B30353A3F44494E23
:1035200053585D62676C71767B80858A8F94999E13
:10353000A3A8204D544B2000204D544B313920007E
:103540002075626C6F782000B562060103000106E9
:1035500001124F24505542582C34312C312C30302C
:1035600030332C303030312C33383430302C302A5A
:1035700032360D0A245047434D442C31362C302C22
:10358000302C302C302C302A36410D0A2450535226
:10359000463130302C302C33383430302C382C310C
:1035A0002C302A33430D0A00C012000000960000A0
:1035B00000C2010000E10000802500000100545914
:1035C0005045000000000000000000000000000264
:1035D000000000803F01024E415646494C5445527E
:1035E000000000000000000003000000004100FF98
:1035F00000000000000000000000000000000000CB
:10360000000000000000000100454E41424C450012
:103610000000000000000000000003000000803FE8
:1036200004015241444955530000000000000000CD
:103630000000000400000048430402414343454C9D
:103640000000000000000000000000000800000072
:103650007A4400FF000000000000000000000000AD
:10366000000000000000000000000024504D544BFA
:103670003232302C3230302A32430D0A24504D542D
:103680004B3331332C312A32450D0A24504D544BE3
:103690003330312C322A32450D0A24504D544B33ED
:1036A00039372C302A32330D0A004572726F723A64
:1036B0002041505F48414C5F4156523A3A41565280
:1036C000416E616C6F67496E206F7574206F662064
:1036D0006368616E6E656C730D0A00474F494E4713
:1036E00020444F574E20464F522041205245424FD2
:1036F0004F540D0A0050414E49433A2073636865A8
:1037000064756C65723A3A73797374656D5F696E4E
:10371000697469616C697A65642063616C6C656465
:103720006D6F7265207468616E206F6E6365005006
:10373000414E49433A2041565253656D6170686F5E
:1037400072653A3A74616B652075736564206672C0
:103750006F6D20696E736964652074696D65722090
:1037600070726F636573730050414E49433A205342
:1037700050493020777269746520636F6C6C69738F
:10378000696F6E0050414E49433A205350493020F2
:103790007472616E7366657220636F6C6C697369B5
:1037A0006F6E00040154435F585900000000000090
:1037B00000000000000013000000204004025443F9
:1037C0005F5A000000000000000000000000001729
:1037D000000000A04000FF0000000000000000000A
:1037E00000000000000000000000000000006779F9
:1037F000726F5B25755D20646964206E6F74206351
:103800006F6E76657267653A20646966663D256607
:10381000206470730A002A00496E69742047797227
:103820006F0020002A00496E697420416363656C53
:103830000043616C6962726174696F6E2046414930
:103840004C45440A0043616C6962726174696F6E31
:10385000207375636365737366756C0A00536361E7
:103860006C696E675B25755D3A20252E32662025D2
:103870002E326620252E32660A004F666673657406
:10388000735B25755D3A20252E326620252E326623
:1038900020252E32660A00506C61636520766568CB
:1038A00069636C6520255320616E642070726573B6
:1038B0007320616E79206B65792E0A006F6E206926
:1038C0007473204241434B006E6F73652055500066
:1038D0006E6F736520444F574E006F6E206974738E
:1038E0002052494748542073696465006F6E20690F
:1038F0007473204C4546542073696465006C65768A
:10390000656C004E6F20494E53206261636B656E9B
:10391000647320617661696C61626C6500546F6FDD
:10392000206D616E7920494E53206261636B656E34
:10393000647300546F6F206D616E792061636365FD
:103940006C7300546F6F206D616E79206779726FB0
:103950007300020050524F445543545F49440000E5
:1039600000000000001F000000000005014143436B
:103970005343414C00000000000000000000210003
:103980000000000005024143434F4646530000003B
:10399000000000000000002D0000000000050347AB
:1039A00059524F464653000000000000000000003E
:1039B00039000000000001044D5055364B5F464968
:1039C0004C5445520000000000450000000000007B
:1039D000FF000000000000000000000000000000E8
:1039E00000000000000000004661696C65642074FE
:1039F0006F20626F6F74204D505536303030203557
:103A00002074696D6573004D5055363030303A2062
:103A1000556E61626C6520746F20676574207365F4
:103A20006D6170686F72650056616C7565732064B6
:103A30006F65736E2774206D617463683B207772C5
:103A4000697474656E3A20253032783B2072656166
:103A5000643A202530327820006661696C65642004
:103A6000746F20626F6F74204D50553630303020A7
:103A7000352074696D65730054696D6564206F75D8
:103A8000742077616974696E6720666F7220757340
:103A9000657220726573706F6E7365000200544F1B
:103AA00054414C0000000000000000000000000530
:103AB00000000000000101524553544152540000DF
:103AC000000000000000000007000000000000FFF0
:103AD00000000000000000000000000000000000E6
:103AE0000000000000000041505F4D6F746F727362
:103AF0003A206661696C656420746F206372656149
:103B00007465207468726F74746C65206375727666
:103B100065000101544352565F454E41424C4500F9
:103B200000000000002E000000803F0102544352BC
:103B3000565F4D49445043540000000000002F00E0
:103B4000000050420103544352565F4D41585043C8
:103B50005400000000000030000000BA420205538B
:103B600050494E5F41524D454400000000000000A6
:103B7000310000008C4200FF000000000000000047
:103B80000000000000000000000000000000000035
:103B90000102030405060701004D4F4445000000E3
:103BA00000000000000000000000310000000000E4
:103BB00005015245545241435400000000000000EA
:103BC00000000042000000000005024E455554521E
:103BD000414C000000000000000000004E0000000A
:103BE00000000503434F4E54524F4C0000000000AC
:103BF00000000000005A000000000001045354417E
:103C0000425F524F4C4C00000000000000002E00AC
:103C1000000000000105535441425F54494C5400D8
:103C2000000000000000002F00000000000106530B
:103C30005441425F50414E0000000000000000006F
:103C4000300000000000010752435F494E5F524FB1
:103C50004C4C000000000000003200000000000298
:103C600008414E474D494E5F524F4C000000000046
:103C70000000350000A08CC50209414E474D415857
:103C80005F524F4C00000000000000370000A08C85
:103C900045010A52435F494E5F54494C54000000AD
:103CA00000000000330000000000020B414E474DB1
:103CB000494E5F54494C00000000000000390000EC
:103CC000A08CC5020C414E474D41585F54494C00F1
:103CD0000000000000003B0000A08C45010D524395
:103CE0005F494E5F50414E0000000000000000346C
:103CF0000000000000020E414E474D494E5F50410A
:103D00004E000000000000003D0000A08CC5020F26
:103D1000414E474D41585F50414E000000000000A9
:103D2000003F0000A08C4501104A535449434B5FAB
:103D3000535044000000000000004100000000005B
:103D400000FF000000000000000000000000000074
:103D500000000000000000000042616420636F6EFC
:103D600076657273696F6E207479706520272553AC
:103D7000270A00556E6B6E6F776E20636F6E7665E7
:103D80007273696F6E20272553270A0025733A2026
:103D900025660A0025733A20256C640A0025733ACB
:103DA0002025640A0025733A2025640A0045455001
:103DB000524F4D2066756C6C000100524F4C4C0008
:103DC00000000000000000000000000000000000F3
:103DD000803F0101504954434800000000000000AA
:103DE00000000000000100000000400102544852A1
:103DF0004F54544C45000000000000000000030038
:103E0000000040400103594157000000000000003D
:103E10000000000000000002000000804000FF00E1
:103E20000000000000000000000000000000000092
:103E3000000000000000010050494E00000000009A
:103E400000000000000000000000000000504101E0
:103E50000150494E32000000000000000000000048
:103E600000000100000080BF00FF00000000000013
:103E70000000000000000000000000000000000042
:103E8000005363686564756C6572206F7665727245
:103E9000756E207461736B5B25755D202825752F09
:103EA0002575290A005363686564756C6572207313
:103EB0006C6970207461736B5B25755D20282575B6
:103EC0002F25752F2575290A0001004445425547C5
:103ED00000000000000000000000000000000000E2
:103EE000000000FF000000000000000000000000D3
:103EF000000000000000000000000050414E494357
:103F00003A2044617461466C61736820535049449F
:103F100065766963654472697665722073656D6163
:103F200070686F7265206973206E756C6C0050410B
:103F30004E49433A2044617461466C617368205372
:103F40005049446576696365447269766572206E8E
:103F50006F7420666F756E6400666C6967687420A4
:103F6000706C616E20726563656976656400666C6D
:103F70006967687420706C616E2075706461746527
:103F80002072656A656374656400327C8900EDD9CE
:103F90006877000000590000000000000000D69F74
:103FA000DCA81817AA90437327F6B968EDF4DED49D
:103FB00009FEE61C1C84DDE80B992927000000009F
:103FC0000F03000000000099B7335276941500F3F8
:103FD0007C000026149E988F0000006A31161D0C8C
:103FE000F1E900E7B73F3600000000000000AF66CF
:103FF0009ED0385DD36C20B95400007C77044C808F
:10400000387486EDCBFA57CBDC19E2001DDF55067C
:10401000E5CB01000000000000000000002A310094
:1040200086DBD0BC5416131586004E44BD7F9A150E
:10403000159001EA49B51653A78AEAF02FBD34AEB0
:104040000000000000000000000000000000000070
:104050000000000000000000000000000000000060
:104060000000000000000000000000000000000050
:104070000000000000000000000000000000000040
:10408000000008CC31AA2C532E00080000000000CC
:10409000000000000000000000000000000000D54B
:1040A000400000010146554E4354494F4E00000068
:1040B0000000000000001D000000000000FF0000E4
:1040C00000000000000000000000000000000000F0
:1040D000000000000002004D494E000000000000FA
:1040E00000000000000000000A0000808944020176
:1040F0005452494D00000000000000000000000084
:10410000000C000080BB4402024D4158000000003A
:10411000000000000000000000000E000080ED44E0
:10412000010352455600000000000000000000009E
:1041300000000010000000803F0205445A0000000B
:10414000000000000000000000000000110000005E
:10415000000000FF00000000000000000000000060
:10416000000000000000000000000000000000004F
:10417000060300000676090200760F5A000100D0FF
:104180000F300000000000000503000005CA09020E
:1041900000CA0E96000100600FA0002C76D8886738
:1041A0004F0823C1DFAE59B1B796E5E453C63A5183
:1041B000997696E6C28426898C9B62407C6FFCBC13
:1041C0009C9F40BAA56FA590055A2A5C936B6C67BB
:1041D0006DC11BE0E40D47F520E6B5D0ED902E0053
:1041E0009435770080841E0000204E000000C83304
:1041F000333333986E128341EF8D21893BE655CFDF
:10420000FEE6DBD1844B38F77C1D90A4BBE424325E
:1042100084725E8100C9F1ECA1E53DDCDFE1E3E6FB
:10422000E8EBEDEFF2F4F7F9FCFE000305080A0CE9
:104230000F111416181B1D202224276E616E0069B1
:104240006E66000102102020080810204010204057
:10425000800201020108040201010204081020404A
:104260008080402010080402018004020180402068
:104270001008040201080402010102040810204091
:10428000800102040810204080400505050507054F
:1042900008080808020202020A0A080804040404C2
:1042A00001010101010101010303030303030303EE
:1042B000040707070C0C0C0C0C0C0C0C020202027D
:1042C00006060606060606060B0B0B0B0B0B0B0B66
:1042D00005000020002300260029002C002F0032BA
:1042E0000000010000030106010901000022002571
:1042F0000028002B002E00310034000201000005D0
:104300000108010B0100002100240027002A002DD4
:10431000003000330001010000040107010A010020
:104320000D94C5640D94AC2B0D94CA2B0D9456249A
:104330000D940C330D942B7F0D94E2230D94647532
:104340000D94CF1F0D94802B0D9411360D94012DDB
:104350000D94FC2B0D94D61F0D949E1E0D9452BDF2
:104360000D94D5BE0D94A4640D94132F0D94A61A2C
:104370000D94DD230D948D210D947A260D943A2E03
:104380000D9435670D94802C0D94F03D0D94DB2732
:104390000D943BBD0D94E0B70D9408530D94921607
:1043A0000D9429B60D94E4220D94408D0D94D8A25D
:1043B0000D94A4A00D9417330D94A6270D94D95EE7
:1043C0000D945B8E0D94AC270D9415960D94BD1332
:1043D0000D94722B0D94AA8D0D94C3350D945067D6
:1043E0000D94742D0D94941E0D941E280D94831C11
:1043F0000D94138E0D946C650D944D2C0D949D2091
:104400000D9488BA0D9471230D94BC1E0D945A5FBF
:104410000D94BA030D94932D0D94E92F0D9472B958
:104420000D942F2E0D94170F0D94291A0D944323DC
:104430000D94562B0D946E570D94E4750D9434899C
:104440000D94E81B0D94AAA00D94A42B0D9400507C
:104450000D9424280D94191B0D94F9630D94419D1E
:104460000D945E9A0D9426560D94B62B0D9466A26B
:104470000D94479D0D94C7530D9432890D94DE23FE
:104480000D9491210D9467630D94ACBF0D949D2CF8
:104490000D9424290D9405310D94589A0D94531CB4
:1044A0000D949C2C0D9421290D9421AF0D9491A86D
:1044B0000D943E8C0D9417660D9415C00D945E6599
:1044C0000D9461730D94471C0D94D7910D94391E72
:1044D0000D942E650D944F330D94E4880D94402B6C
:1044E0000D940D640D943B2B0D943C310D9448B00C
:1044F0000D944E4B0D94A22F0D94FD220D945D92C0
:104500000D9438950D94CA320D94EB1A0D94B90E92
:104510000D94572C0D947F660D949E2B0D94955001
:104520000D9480150D94B22B0D94AA830D9447A180
:104530000D94AE160D942F1A0D946A2B0D948D6662
:104540000D94522C0D94362D0D9459260D94BC7754
:104550000D946B9E0D9449660D94EA760D94A5809A
:104560000D94C43A0D9477270D941EC40D94D22552
:104570000D94732F0D940C960D94B4660D94C62271
:104580000D94F2640D94A1810D9498110D94C62D93
:104590000D94A58E0D940B2C0D9444C40D9462A320
:1045A0000D94276D0D948D150D94F42C0D94702998
:1045B0000D94FFAF0D94E2360D948B1A0D942BBD24
:1045C0000D94E82B0D946D2F0D94AFBF0D9463B235
:1045D0000D94862B0D9443220D94752C0D9453311C
:1045E0000D94B3750D94B08A0D94910D0D94E32B39
:1045F0000D9438150D94372A0D941E050D94D9A4E9
:104600000D949D8A0D948EAA0D94D4460D94B47D7C
:104610000D948A830D9490260D94659E0D941B67CE
:104620000D94F1330D946F640D9400070D94571E93
:104630000D94F1660D946E2B0D94B9570D944E7731
:104640000D94AC100D94F02A0D948A2B0D944E8B82
:104650000D9418230D942D7B0D943A1E0D94DE1E9F
:104660000D94818B0D94625C0D945D2D0D94F18AF7
:104670000D94DF060D944F740D94AE260D94C13544
:104680000D946B9B0D949E650D94D6BD0D9427756E
:104690000D94532B0D94432C0D94992D0D9494153A
:1046A0000D9421480D9484220D9480590D94662C0C
:1046B0000D940F580D949D130D949E640D941364E6
:1046C0000D94C42B0D941B750D94EB330D945C2C41
:1046D0000D94D3640D94670C0D94E8A80D944DA12E
:1046E0000D94249F0D94BA2B0D940E780D940EBD4D
:1046F0000D94831E0D946BBD0D94C04E0D948B16BE
:104700000D94612C0D94176A0D9453AE0D94B28ADA
:104710000D94C6160D94E9230D945A220D94E123AD
:104720000D9486150D94F2770D943C360D942FB0B0
:104730000D94AE220D94337B0D94A9130D94C92BC7
:104740000D94EFC90D9472330D94ED630D9428759B
:104750000D94F1B60D948F2B0D9445040D94E32F19
:104760000D94E4230D94D09F0D942A740D94322758
:104770000D943F640D9462A90D94DE1B0D94A18BE2
:104780000D945CAC0D94BCA40D94EF8A0D94012C97
:104790000D94579C0D9414A20D941AA20D94A32C61
:1047A0000D9427290D94FA060D941EBC0D944532E4
:1047B0000D94DC930D9410B10D9499AE0D94E723F4
:1047C0000D9454220D94F9380D94AA4E0D94661E42
:1047D0000D9439320D94751F0D94E8340D94101F0B
:1047E0000D94FA160D947D1E0D94D21F0D94F72B87
:1047F0000D9436320D94BE420D948D330D94157583
:104800000D94AB330D94A6BF0D9472620D94E6C562
:104810000D94C0150D94E4A30D94C29A0D94DF1667
:104820000D94C8A70D9460A00D949BC30D94C66809
:104830000D9412330D9499280D94711C0D94B71397
:104840000D9427B00D9411330D948C650D94062DA5
:104850000D9452260D94291C0D94F9B30D946AC43D
:104860000D9463BD0D94D0650D946B2C0D94DC9B61
:104870000D9455660D9442940D94413A0D94EB16A7
:104880000D94EA310D94BF030D946F670D944E643F
:104890000D94D29B0D94FE2C0D94BB320D94392CAB
:1048A0000D94C38F0D943F320D94991E0D94482C96
:1048B0000D94960B0D94E7640D94BCA80D947F3075
:1048C0000D94FD290D944E260D94D61B0D94F52CB8
:1048D0000D9495290D94CB9C0D9494210D94B815AD
:1048E0000D94821F0D94BE650D94F0310D94FB451F
:1048F0000D943CA60D946F260D94121C0D945A50E5
:104900000D945B330D940C670D94A3890D942BB01B
:104910000D94B61E0D9483410D94A3130D94322F64
:104920000D94F0620D9414800D9460C20D94C89A99
:104930000D9423AE0D94CB350D940D3E0D94902B1C
:104940000D9492C00D94142C0D946E8F0D94602BC9
:104950000D943E150D94C5990D9417A30D9499BD12
:104960000D947EBD0D94D3660D94478F0D94E3B4E2
:104970000D94F5300D9417650D94988A0D94DB23F2
:104980000D94F0AB0D949B610D94062C0D945BBDC2
:104990000D941F750D94D6350D946D7C0D94A53531
:1049A0000D94A8290D94398B0D94C9030D94E82812
:1049B0000D9476290D948C400D94EFBA0D949A2B9A
:1049C0000D94E9980D940B880D943D1E0D94E069AB
:1049D0000D94EE340D94E7320D945D900D9429639F
:1049E0000D94FA2C0D94782B0D94024C0D94B6383E
:1049F0000D940E330D942A760D941A170D94E12719
:104A00000D9423B00D94C1030D9416780D94E132EA
:104A10000D94B54E0D94BE350D94642B0D94A82BBA
:104A20000D947AB30D943BB30D94FB1E0D948B48FB
:104A30000D94520A0D9471540D94251D0D94A609E0
:104A40000D94E29B0D949B1A0D94C5010D941FB01B
:104A50000D94B61A0D9433AC0D94B0130D948722B7
:104A60000D9490BF0D9401360D9406C20D94BB3584
:104A70000D94F38A0D94AE900D9417B00D947C2B89
:104A80000D94452B0D94CC5A0D94C64E0D9429755A
:104A90000D941C780D944F660D94F90B0D94DEAFB8
:104AA0000D9437330D94ED2B0D941A2D0D9455263E
:104AB0000D940E1B0D9433C40D9460220D94F22BB3
:104AC0000D94921A0D94ABA90D9447330D94DC9676
:104AD0000D9456C40D94DF0C0D94F9C30D94A215DA
:104AE0000D941D9A0D94BE3A0D947D270D94102CB3
:104AF0000D947A2C0D94B9330D94DC230D944B1541
:104B00000D9434500D94DEA30D94F05F0D943C325F
:104B10000D944C3E0D94C4B20D9472260D944A33FC
:104B20000D94912D0D94AD9D0D94D28A0D94702C01
:104B30000D940BC40D94C9300D94C82D0D94180517
:104B40000D9449C00D94D08A0D9494230D94D335BF
:104B50000D94A1160D9431D00D94AB320D94647B5D
:104B60000D94034F0D9477540D94F63D0D946C1EE7
:104B70000D9496370D94C6300D9445150D9402880A
:104B80000D94C02F0D94885A0D9479640D94EA35D4
:104B90000D945A930D94CB1A0D947E8C0D94F4AE13
:104BA0000D942AA80D94CF1B0D94C3030D94362B9E
:104BB0000D94B9AD0D9440A50D943DC30D9434688A
:104BC0000D94E9530D94ED900D9483720D9480260D
:104BD0000D94B60A0D942C2B0D9486220D942A2345
:104BE0000D94FA930D94FC1B0D949D660D94A3B344
:104BF0000D94152C0D942D9A0D94FC800D94BF2FBF
:104C00000D9457230D94A7220D941B2C0D94C02BAB
:104C10000D94B5290D9468000D94412E0D9474A344
:104C20000D94FF710D9400660D94312A0D94567CFD
:104C30000D9490770D941BB00D942AA70D94F41643
:104C40000D94B0A50D94D69F0D943B600D94975B89
:104C50000D9433B00D94E27B0D946966D39F0A26C0
:104C6000B6220C26F823E823F824FE23BA22E421F6
:104C700074A311241FBECFEFD1E2DEBFCDBF00E091
:104C80000CBF15E0A0E0B2E0E6EAF7EA03E00BBFF4
:104C900002C007900D92A634B107D9F717E1A6E438
:104CA000B5E001C01D92AC3AB107E1F71CE4C0E7E2
:104CB000DCE400E006C022970109FE010BBF0F945F
:104CC000DCD1CC35D10780E00807A9F70E94879195
:104CD0000D94C2D30C9400000895E091EF10F09170
:104CE000F0100084F185E02D8FEE90E11995089584
:104CF000A9E1B0E0EEE7F6E20D9446D1962FE9E1A6
:104D0000BE016F5F7F4FDB01FE2F1D92FA95E9F721
:104D1000F3EAF983F5E9FA83EB838C839D832E8391
:104D20003F8348875987EA86FB860C871D87AE86B6
:104D3000BF86C88AD98A8FA198A5A9A5BAA58A8B4A
:104D40009B8BAC8BBD8B8BA59CA5ADA5BEA58E8B7F
:104D50009F8BA88FB98FE091F511F091F611008427
:104D6000F185E02D49E150E085EF91E119956996D3
:104D7000EAE00D9462D1A6E0B0E0E1ECF6E20D9439
:104D80004ED1BE016F5F7F4F96E0FB0111929A9565
:104D9000E9F793EA998395E99A8393E09B838C835F
:104DA00080917E1290917F129E838D83E091F51108
:104DB000F091F6110084F185E02D46E050E085EF9A
:104DC00091E119952696E2E00D946AD1A5E0B0E054
:104DD000ECEEF6E20D944ED1DE01119695E0FD0168
:104DE00011929A95E9F793EA998395E99A8393E169
:104DF0009B838C836D83E091F511F091F611008413
:104E0000F185E02D45E050E0BD0185EF91E1199578
:104E10002596E2E00D946AD1A0912915B0912A154A
:104E2000ED91FC9111970280F381E02DCD01199550
:104E300008958091291590912A15DC01ED91FC913E
:104E40000480F581E02D19950895809129159091A0
:104E50002A15DC01ED91FC910680F781E02D199572
:104E600008958F929F92AF92BF92CF92DF92EF926E
:104E7000FF928090070690900806A0900906B090D7
:104E80000A0620E030E0A901C501B4010F94FCCB73
:104E9000882309F482C0C090F705D090F805E0900F
:104EA000F905F090FA0520E030E0A901C701B6014C
:104EB0000F94FCCB882309F470C08092E113909288
:104EC000E213A092E313B092E41380910306909151
:104ED0000406A0910506B09106068093E513909311
:104EE000E613A093E713B093E8138091FF05909128
:104EF0000006A0910106B09102068093E9139093F9
:104F0000EA13A093EB13B093EC138091FB059091FF
:104F1000FC05A091FD05B091FE058093D9149093F6
:104F2000DA14A093DB14B093DC14C092FF13D09278
:104F30000014E0920114F09202148091F305909114
:104F4000F405A091F505B091F605809303149093B4
:104F50000414A0930514B09306148091EF0590916A
:104F6000F005A091F105B091F2058093071490939C
:104F70000814A0930914B0930A148091EB05909142
:104F8000EC05A091ED05B091EE058093DD149093B2
:104F9000DE14A093DF14B093E014FF90EF90DF9045
:104FA000CF90BF90AF909F908F9008958F929F92D7
:104FB000AF92BF92CF92DF92EF92FF92809007065E
:104FC00090900806A0900906B0900A0620E030E014
:104FD000A901C501B4010F94FCCB882309F483C057
:104FE000C090F705D090F805E090F905F090FA052B
:104FF00020E030E0A901C701B6010F94FCCB882363
:1050000009F471C08092E1139092E213A092E3132D
:10501000B092E4132DEC3CEC4CEC5DE3C501B40123
:105020000F94C9CE6093E5137093E6138093E71352
:105030009093E8138091FF0590910006A0910106DE
:10504000B09102068093E9139093EA13A093EB13B7
:10505000B093EC138091FB059091FC05A091FD05A8
:10506000B091FE058093D9149093DA14A093DB14C9
:10507000B093DC14C092FF13D0920014E09201149C
:10508000F09202142DEC3CEC4CEC5DE3C701B60150
:105090000F94C9CE60930314709304148093051485
:1050A000909306148091EF059091F005A091F10581
:1050B000B091F2058093071490930814A0930914FB
:1050C000B0930A148091EB059091EC05A091ED0549
:1050D000B091EE058093DD149093DE14A093DF145D
:1050E000B093E01403C062E08EE070DEFF90EF90BA
:1050F000DF90CF90BF90AF909F908F900895A0E0E9
:10510000B0E0E5E8F8E20D9440D1EC018B01288194
:105110003981FB0180819181121613061CF497FFDF
:1051200007C010C02115310519F01816190654F0E2
:10513000AC0197FF04C044275527481B590B493041
:1051400057401CF0998388839BC0B901882777FD5D
:105150008095982FE0906912F0906A12121613064B
:105160000CF046C00F949ECC4B015C012DEC3CEC46
:105170004CE45DE30F94C9CE2B013C011E141F04C7
:10518000ACF4B701882777FD8095982F0F949ECCBB
:105190006B017C019B01AC01B201C3010F9479CE7C
:1051A00018168CF026019E2D8F2D0FC020E030E0C8
:1051B00040E85FE30F9479CE18162CF0412C512C67
:1051C00090E88FE302C0962D872D9201492F582F2A
:1051D000C501B4010F941ECB0F946BCC7983688307
:1051E000F80120813181621773070CF047C045C078
:1051F0000F949ECC4B015C0190582DEC3CEC4CE4A0
:105200005DE30F94C9CE2B013C011E141F04ACF4C6
:10521000B701882777FD8095982F0F949ECC6B015E
:105220007C019B01AC01B201C3010F9479CE181629
:105230008CF026019E2D8F2D0FC020E030E040E83D
:105240005FE30F9479CE18162CF0412C512C90E886
:105250008FE302C0962D872D9201492F582FC5014B
:10526000B4010F941FCB0F946BCC79836883F80142
:1052700020813181261737070CF4B90179836883BF
:10528000CDB7DEB7E0E10D945CD1E1E9F5E08081D6
:10529000887F8560808382E390E09093AA05809365
:1052A000A90510929405109293058091C0059091E4
:1052B000C1059093AE058093AD050895E1E9F5E051
:1052C0008081877C8862808382E390E09093AC0544
:1052D0008093AB0510929605109295058091C205BA
:1052E0009091C3059093B0058093AF0508958B30DE
:1052F00039F020F48350853028F402C0803111F455
:1053000081E0089580E00895823010F481E00895EE
:1053100080E008958091CF0B80FF18C08091A1118B
:105320009091A211039794F08091761181FD0EC0A7
:105330008091C10B83FD0AC090918C0590FD06C041
:1053400085FB882780F991E08927089580E00895FA
:1053500020E030E0FC01E20FF31F1282138214827E
:1053600015822C5F3F4F2C313105A1F7FC01168EC1
:105370000895FC01968D81E0890F868FDF0124E07E
:10538000929FA00DB11D112412964D935D936D93C4
:105390007C931597873008F0168ECB01BA010895DB
:1053A000A7E1B0E0E6EDF9E20D944CD18E010F5F7C
:1053B0001F4F87E1D8011D928A95E9F783EA898317
:1053C00085E98A8381E08B838091291590912A1544
:1053D000DC01ED91FC910480F581E02D19956C8341
:1053E0007D838E839F83609123097091240980912E
:1053F0002509909126090F946BCC79876887809155
:10540000D10D9091D20D9B878A8760912709709169
:1054100028098091290990912A090F946BCC7D87E6
:105420006C878091D50D9091D60D9F878E87609166
:105430002B0970912C0980912D0990912E090F94C0
:1054400070CC798B688B8091D90D9091DA0D9B8B04
:105450008A8B83EC9DE00E9483E720E030E048ECFB
:1054600052E40F94C9CE0F9470CC7D8B6C8B83EC7F
:105470009DE00E94BCE720E030E048EC52E40F944D
:10548000C9CE0F9470CC7F8B6E8BE091F511F091AB
:10549000F6110084F185E02D47E150E0B80185EF79
:1054A00091E119956796E4E00D9468D180E596E066
:1054B0000F94A48388EB96E00D948E02CF93DF9334
:1054C000EC018091D30B882329F0BE0183ED9BE092
:1054D0000F94BEB28091AA0C882329F0BE018AEAFB
:1054E0009CE00F94BEB2DF91CF9108958CE190E0E3
:1054F000E5CF80E090E0E2CF8091D30B882331F0BC
:1055000060E070E083ED9BE00F94DDB48091AA0C25
:10551000882331F060E070E08AEA9CE00D94DDB40D
:105520000895A0E0B0E0E7E9FAE20D9448D1809157
:105530007A0A90917B0AA0917C0A60914A1270913C
:105540004B129B01442737FD4095281739074A071E
:1055500044F49C014A2F552747FD5095CA01B901D3
:1055600004C0882777FD8095982F0F949ECC8B01DF
:10557000D82FC92F80E296E00E94D6C780FF26C0B0
:1055800020912D0630912E0640912F065091300625
:105590006091250670912606809127069091280635
:1055A0000F941ECB20E030E048EC52E40F94C9CEBB
:1055B0006B017C019B01AC01B8018D2F9C2F0F94D6
:1055C000FCCB87FD03C08601DE2DCF2DB8018D2FCA
:1055D0009C2FCDB7DEB7E8E00D9464D10F931F93F5
:1055E000CF93DF93EC018B018091D30B882331F0B3
:1055F000AB01BE0183ED9BE00F9474B38091AA0CC4
:10560000882331F0A801BE018AEA9CE00F9474B3AC
:10561000DF91CF911F910F91089588E192E10D9450
:105620005F8880915D12882321F08FEE9FE00D94BA
:1056300045040895A0E0B0E0E0E2FBE20D9444D11F
:105640005A01E901E12CF12C00E81FE320E030E0F1
:10565000A9010F9420566B017C01B501882777FDC5
:105660008095982F0F949ECC9B01AC01C701B60189
:105670000F94C9CE4B015C01A701960160E070E078
:1056800080E89FE30F941ECB6B017C01BE0188274D
:1056900077FD8095982F0F949ECC9B01AC01C7019C
:1056A000B6010F94C9CE9B01AC01C501B4010F94A2
:1056B0001FCB0F946BCCCB01CDB7DEB7ECE00D94D4
:1056C00060D1A0E0B0E0E7E6FBE20D9444D18B01AD
:1056D0007A01E90144E951E16CE67EEE0F946356EC
:1056E0006C0144E951E16CE67EEEC8010F9463560B
:1056F0008C016091EB147091EC14643981E17807AE
:1057000031F4F701D182C0821983088346C08091A9
:1057100050059091510568177907C1F070935105B4
:1057200060935005882777FD8095982F0F949ECC25
:1057300020E030EA4CE855E40F9403CC6093060275
:1057400070930702809308029093090280900602EA
:1057500090900702A0900802B0900902B601882735
:1057600077FD8095982F0F949ECCA50194010F94FE
:10577000C9CE0F946BCCF70171836083B801882781
:1057800077FD8095982F0F949ECCA50194010F94DE
:10579000C9CE0F946BCC79836883CDB7DEB7ECE0CC
:1057A0000D9460D1A0E0B0E0E8EDFBE20D9444D1AF
:1057B000EC016A017B010091691210916A1220E0EC
:1057C00030E0A901C701B6010F9479CE4091970549
:1057D000509198056091990570919A0587FD12C0C6
:1057E000CB01BA019058A70196010F94C9CE4B0185
:1057F0005C0120E030E040E752E4C701B6010F94BD
:105800001FCB11C0CB01BA019058A70196010F948C
:10581000C9CE4B015C01A701960160E070E080E712
:1058200092E40F941ECB9B01AC0160E070E08AEF24
:1058300093E40F9403CC20E030E040E85FE30F9462
:105840001FCB9B01AC01C501B4010F94C9CE2881C7
:1058500039817901E00EF11EA901401B510B8A012B
:105860000F946BCCDC01CB01A701B8010F946356F8
:105870009983888340916B1250916C126627772729
:10588000641B750B0F94635699838883CDB7DEB77D
:10589000ECE00D9460D18F929F92AF92BF92EF9205
:1058A0000F931F938091E406882309F455C081501B
:1058B0008093E40680915216826080935216609124
:1058C000A4127091A512882777FD8095982F0F94C8
:1058D0009ECC20E030E04AE755E40F9403CC0F94CF
:1058E00085564B015C016091C1127091C2128827EC
:1058F00077FD8095982F0F949ECC20E030E04AE70A
:1059000055E40F9403CC0F9485568B019C01809134
:10591000F50D82608093F50DE091C30DF091C40DFB
:10592000EE24E3948091E4068111E12C00A4F1A51A
:10593000E02DB501A40183EC9DE019958091E4066A
:1059400081110AC08091F50D8D7F8093F50D8091B6
:1059500052168D7F809352161F910F91EF90BF903A
:10596000AF909F908F9008958091CE0B982F9D7F40
:10597000953029F488E297E00E9498D810C08330CF
:1059800051F0863041F0843099F48091FB0A909177
:10599000FC0A019769F488E297E00E94B5D8609309
:1059A0000C0B70930D0B80930E0B90930F0B0895BF
:1059B00010920C0B10920D0B10920E0B10920F0BFD
:1059C0000895A5E2B0E0E7EEFCE20D944CD18E0123
:1059D0000F5F1F4F25E2F80111922A95E9F7B801F0
:1059E0000F942E6F6091860D7091870DA80185EF41
:1059F00091E10F94E2A8A596E4E00D9468D1CF93CD
:105A0000C82F67EE78E081E090E0E8DD8FEE90E16E
:105A1000CC2319F00E9437F702C00E94B9F868EC55
:105A200078E081E090E0DADDCF910895CF93DF93C5
:105A3000C8E2D0E08091E9149091EA14DC01ED9184
:105A4000FC910284F385E02D6FE178E019952197B0
:105A5000209781F78091E9149091EA140F94BEC5C4
:105A6000DF91CF910895CF92DF92EF92FF920F9343
:105A70001F938091291590912A15DC01ED91FC91DD
:105A80000680F781E02D19952091E9063091EA060C
:105A90004091890550918A052417350779F0309394
:105AA0008A05209389056093850570938605809308
:105AB000870590938805109284053DC020910E02C1
:105AC0002223C9F100918505109186052091870553
:105AD000309188056B017C01C01AD10AE20AF30AF1
